{
  "contractName": "BuyItems",
  "abi": [
    {
      "inputs": [],
      "payable": false,
      "stateMutability": "nonpayable",
      "type": "constructor"
    },
    {
      "constant": true,
      "inputs": [
        {
          "internalType": "uint256",
          "name": "",
          "type": "uint256"
        }
      ],
      "name": "purchasedItems",
      "outputs": [
        {
          "internalType": "uint256",
          "name": "productID",
          "type": "uint256"
        },
        {
          "internalType": "string",
          "name": "description",
          "type": "string"
        },
        {
          "internalType": "uint256",
          "name": "price",
          "type": "uint256"
        }
      ],
      "payable": false,
      "stateMutability": "view",
      "type": "function"
    },
    {
      "constant": true,
      "inputs": [],
      "name": "purchasedItemsCount",
      "outputs": [
        {
          "internalType": "uint256",
          "name": "",
          "type": "uint256"
        }
      ],
      "payable": false,
      "stateMutability": "view",
      "type": "function"
    },
    {
      "constant": false,
      "inputs": [
        {
          "internalType": "uint256",
          "name": "id",
          "type": "uint256"
        },
        {
          "internalType": "string",
          "name": "name",
          "type": "string"
        },
        {
          "internalType": "uint256",
          "name": "price",
          "type": "uint256"
        }
      ],
      "name": "addToCart",
      "outputs": [],
      "payable": false,
      "stateMutability": "nonpayable",
      "type": "function"
    },
    {
      "constant": false,
      "inputs": [],
      "name": "getCount",
      "outputs": [
        {
          "internalType": "uint256",
          "name": "",
          "type": "uint256"
        }
      ],
      "payable": false,
      "stateMutability": "nonpayable",
      "type": "function"
    }
  ],
  "bytecode": "0x60806040526000805534801561001457600080fd5b50610435806100246000396000f3fe608060405234801561001057600080fd5b506004361061004c5760003560e01c80630676151914610051578063577725e61461012057806398def55e1461013e578063a87d942c146101f3575b600080fd5b61011e6004803603606081101561006757600080fd5b81019080803590602001909291908035906020019064010000000081111561008e57600080fd5b8201836020820111156100a057600080fd5b803590602001918460018302840111640100000000831117156100c257600080fd5b91908080601f016020809104026020016040519081016040528093929190818152602001838380828437600081840152601f19601f82011690508083019250505050505050919291929080359060200190929190505050610211565b005b61012861028a565b6040518082815260200191505060405180910390f35b61016a6004803603602081101561015457600080fd5b8101908080359060200190929190505050610290565b6040518084815260200180602001838152602001828103825284818151815260200191508051906020019080838360005b838110156101b657808201518184015260208101905061019b565b50505050905090810190601f1680156101e35780820380516001836020036101000a031916815260200191505b5094505050505060405180910390f35b6101fb610352565b6040518082815260200191505060405180910390f35b6000808154809291906001019190505550604051806060016040528084815260200183815260200182815250600160008054815260200190815260200160002060008201518160000155602082015181600101908051906020019061027792919061035b565b5060408201518160020155905050505050565b60005481565b6001602052806000526040600020600091509050806000015490806001018054600181600116156101000203166002900480601f0160208091040260200160405190810160405280929190818152602001828054600181600116156101000203166002900480156103425780601f1061031757610100808354040283529160200191610342565b820191906000526020600020905b81548152906001019060200180831161032557829003601f168201915b5050505050908060020154905083565b60008054905090565b828054600181600116156101000203166002900490600052602060002090601f016020900481019282601f1061039c57805160ff19168380011785556103ca565b828001600101855582156103ca579182015b828111156103c95782518255916020019190600101906103ae565b5b5090506103d791906103db565b5090565b6103fd91905b808211156103f95760008160009055506001016103e1565b5090565b9056fea265627a7a72315820ebca8446838370ae7deaa0e05531fd2712c0ecf121a64b7eba8ec978d01ef3f864736f6c63430005100032",
  "source": "pragma solidity >=0.4.21 <0.7.0;\n\ncontract BuyItems {\n\n    uint256 public purchasedItemsCount=0;\n\n    struct Items{\n        uint256 productID;\n        string description;\n        uint256 price;\n    }\n\n    mapping(uint256=>Items) public purchasedItems;\n\n    constructor() public{\n\n    }\n\n    function addToCart(uint256 id, string memory name, uint256 price) public {\n        purchasedItemsCount++;\n        purchasedItems[purchasedItemsCount] = Items(id,name,price);\n    }\n\n    function getCount() public returns(uint256){\n        return purchasedItemsCount;\n    }\n}\n",
  "sourcePath": "/home/shubham/WebstormProjects/truffle-react/contracts/BuyItems.sol",
  "compiler": {
    "name": "solc",
    "version": "0.5.16+commit.9c3226ce.Emscripten.clang"
  },
  "schemaVersion": "3.2.0",
  "updatedAt": "2020-07-05T06:49:59.994Z",
  "networkType": "ethereum",
  "devdoc": {
    "methods": {}
  },
  "userdoc": {
    "methods": {}
  }
}